:04000000E9EF07F02D
:1000080000C015F0E1CF16F0E2CF17F09EA40ED095
:10001800BF507D6FBE507C6FCD90CF6ACE6ACD8ABF
:10002800CD989E90CD80D6EC04F09E9415C000F03B
:0A00380016C0E1FF17C0E2FF11003F
:10004200240E0C6EB50E0D6E0D2EFED70C2EFCD7A7
:0600520000000000120096
:0C0058000000000000000000000012008A
:0A006400530E0D6E0D2EFED7120094
:10006E00020178BF02D0819E01D0818E78BD02D070
:10007E00819C01D0818C78BB02D0819A01D0818A7B
:10008E0078B902D0819801D0818800017EB102D06A
:10009E00818401D081948186D8DF8196020178B760
:1000AE0002D0819E01D0818E78B502D0819C01D084
:1000BE00818C78B302D0819A01D0818A78B102D036
:1000CE00819801D0818800017EB102D0818401D057
:1000DE0081948186BADF81967EA102D0ABDF01D0FA
:0400EE00BADF120063
:0E00F20000017E9177C278F2B9DF7E811200A4
:1001000010D0800E0201726F1AD0C00E726F17D01D
:10011000940E726F14D0D40E726F11D0800E726F65
:100120000ED002017251010AECE07251020AEDE0B8
:100130007251030AEDE07251040AEDE0EFD7730546
:10014000006E7251002600C072F200C078F28FDF9C
:100150007E910201766B76517425E96E000E752151
:10016000EA6EEE520CE076517425E96E000E7521B0
:10017000EA6EEECF77F2BDDF0201762BECD70001FD
:040180007E8112006A
:1001840010D0800E0201726F1AD0C00E726F17D099
:10019400940E726F14D0D40E726F11D0800E726FE1
:1001A4000ED002017251010AECE07251020AEDE034
:1001B4007251030AEDE07251040AEDE0EFD77305C2
:1001C400006E7251002600C072F200017E8100C0F0
:1001D40078F24BDF7E9174C278F247DF7E811200A1
:1001E400086A080E0C6E003408360450085ED8B055
:0E01F40002D00826D89000360C2EF5D7120047
:100202000B6A0A6A096A086A0E6A033408360450DD
:10021200085E0550D8A0053C095E0650D8A0063CF1
:100222000A5E0750D8A0073C0B5EE86AD8A0010E10
:100232000E5E0336070E0C6E0334083609360A3694
:100242000B360E36045003A012D0085E0550D8A01B
:10025200053C095E0650D8A0063C0A5E0750D8A0AD
:10026200073C0B5EE86AD8A0010E0E5E11D008268C
:100272000550D8B0053C09260650D8B0063C0A26DF
:100282000750D8B0073C0B26E86AD8B0010E0E26FC
:1002920003360C2ED1D70234083609360A360B360D
:1002A2000E36045003A012D0085E0550D8A0053CBB
:1002B200095E0650D8A0063C0A5E0750D8A0073C4B
:1002C2000B5EE86AD8A0010E0E5E11D0082605501A
:1002D200D8B0053C09260650D8B0063C0A2607507D
:1002E200D8B0073C0B26E86AD8B0010E0E260236BB
:1002F200070E0C6E0234083609360A360B360E36F5
:10030200045002A012D0085E0550D8A0053C095E38
:100312000650D8A0063C0A5E0750D8A0073C0B5EE8
:10032200E86AD8A0010E0E5E11D008260550D8B09A
:10033200053C09260650D8B0063C0A260750D8B01C
:10034200073C0B26E86AD8B0010E0E2602360C2EA8
:10035200D1D70134083609360A360B360E36045028
:1003620002A012D0085E0550D8A0053C095E0650D6
:10037200D8A0063C0A5E0750D8A0073C0B5EE86A8C
:10038200D8A0010E0E5E11D008260550D8B0053C4B
:1003920009260650D8B0063C0A260750D8B0073CBA
:1003A2000B26E86AD8B0010E0E260136070E0C6E37
:1003B2000134083609360A360B360E36045001A0CF
:1003C20012D0085E0550D8A0053C095E0650D8A0A0
:1003D200063C0A5E0750D8A0073C0B5EE86AD8A02C
:1003E200010E0E5E11D008260550D8B0053C092634
:1003F2000650D8B0063C0A260750D8B0073C0B2658
:10040200E86AD8B0010E0E2601360C2ED1D7003480
:10041200083609360A360B360E36045001A012D0C1
:10042200085E0550D8A0053C095E0650D8A0063CDF
:100432000A5E0750D8A0073C0B5EE86AD8A0010EFE
:100442000E5E11D008260550D8B0053C092606508C
:10045200D8B0063C0A260750D8B0073C0B26E86AFB
:10046200D8B0010E0E260036070E0C6E0034083688
:1004720009360A360B360E36045000A012D0085E3A
:100482000550D8A0053C095E0650D8A0063C0A5E7D
:100492000750D8A0073C0B5EE86AD8A0010E0E5E9A
:1004A20011D008260550D8B0053C09260650D8B010
:1004B200063C0A260750D8B0073C0B26E86AD8B09B
:1004C200010E0E2600360C2ED1D700B00ED00450ED
:1004D20008260550D8B0053C09260650D8B0063C7F
:0C04E2000A260750D8B0073C0B26120079
:1004EE00010E0201726F080E736F6FC274F270C24A
:1004FE0075F2FFDD010E0201726F070E736F7151FF
:08050E00300F746F38DE12009B
:0C0516000C0E046E64C200F062DE1200E5
:100522000A0E046E000E056E066E076E66C200F0BD
:1005320067C201F068C202F069C203F061DE08C05E
:1005420000F009C001F00AC002F00BC003F000C0C5
:100552006AF20A0E046E000E056E066E076E66C221
:1005620000F067C201F068C202F069C203F048DE1F
:100572000A0E046E000E056E066E076E41DE08C09E
:1005820000F009C001F00AC002F00BC003F000C085
:100592006BF2640E046E000E056E066E076E66C286
:1005A20000F067C201F068C202F069C203F028DEFF
:1005B2000A0E046E000E056E066E076E21DE08C07E
:1005C20000F009C001F00AC002F00BC003F000C045
:1005D2006CF2E80E046E030E056E000E066E076ED8
:1005E20066C200F067C201F068C202F069C203F09D
:1005F20007DE0A0E046E000E056E066E076E00DE42
:1006020008C000F009C001F00AC002F00BC003F0FC
:1006120000C06DF2100E046E270E056E000E066EFF
:10062200076E66C200F067C201F068C202F069C2DA
:1006320003F0E6DD0A0E046E000E056E066E076E0E
:10064200DFDD08C000F009C001F00AC002F00BC0F3
:1006520003F000C06EF2A00E046E860E056E010E4F
:10066200066E000E076E66C200F067C201F068C235
:1006720002F069C203F0C4DD0A0E046E000E056EBC
:10068200066E076EBDDD08C000F009C001F00AC0A9
:1006920002F00BC003F000C06FF264C272F2060EE9
:1006A20002016525736F6A51300F746F6ADD64C28F
:1006B20072F2050E02016525736F6B51300F746F74
:1006C20060DD64C272F2040E02016525736F2E0EA4
:1006D200746F57DD64C272F2030E02016525736FF7
:1006E2006C51300F746F4DDD64C272F2020E020162
:1006F2006525736F6D51300F746F43DD64C272F202
:1007020002016551010F736F6E51300F746F39DD45
:1007120002016F51000A08E164C272F265C273F20B
:10072200200E746F2EDD09D064C272F265C273F2BC
:0C07320002016F51300F746F24DD1200C3
:10073E006CD06D0E02016F6F000E706F64C271F29D
:10074E00CFDE88D0680E02016F6F000E706F64C22C
:10075E0071F2C6DE7FD0770E02016F6F000E706FE2
:10076E0064C271F2BDDE76D0720E02016F6F000EA2
:10077E00706F64C271F2B4DE6DD0430E02016F6F02
:10078E00000E706F64C271F2ABDE64D03E0E0201D9
:10079E006F6F000E706F64C271F2A2DE5BD05E0EE0
:1007AE0002016F6F000E706F64C271F299DE52D04B
:1007BE00630E02016F6F000E706F64C271F290DEF5
:1007CE0049D0540E02016F6F000E706F64C271F249
:1007DE0087DE40D0590E02016F6F000E706F64C23B
:1007EE0071F27EDE37D0490E02016F6F000E706F10
:1007FE0064C271F275DE2ED03A0E02016F6F000EDA
:10080E00706F64C271F26CDE25D002016551000A70
:10081E0090E06551010A96E06551020A9CE065512F
:10082E00030AA2E06551040AA8E06551050AAEE08C
:10083E006551060AB4E06551070ABAE06551080A27
:10084E00C0E06551090AC6E065510A0ACCE065515F
:06085E000B0AD2E01200BB
:100864000C0E046E64C200F0BBDC08C000F0120081
:100874000050040204BEF45E045000BEF45EF3CFE4
:0808840000F0F4CF01F01200B6
:10088C000B6A0A6A096A00500402F4CF09F0F3CF2C
:10089C0008F001500502F4CF0BF0F3CF0AF0005032
:1008AC000502F3500926F4500A22E86A0B22015083
:1008BC000402F3500926F4500A22E86A0B2208C0FD
:1008CC0000F009C001F00AC002F00BC003F01200E6
:1008DC00220E0C6E086A096A0A6A0B6A0C06D8B4F6
:1008EC001FD0D8900B320A3209320832033202324E
:1008FC0001320032D8A0F2D70C06D8B409D004507B
:10090C0008260550092206500A2207500B22EAD766
:10091C00045008260550092206500A2207500B22C3
:02092C001200B7
:10092E00210E0C6E760E0D6E0D2EFED70C2EFCD7F4
:04093E0000001200A3
:100942000900F5CFE6FF0006FBE10106F9E112001E
:10095200070EC16E806A926A040E826E040E946E55
:10096200CD90CD96CD92CD9ACD98F28C9D84F28E7B
:02097200120071
:10097400000E006E2D0E016E310E026E010E036E1E
:1009840051C204F0000E056E066E076EA5DF00C0AE
:100994004EF001C04FF002C050F003C051F0100EF1
:0809A400536E4F0E526E12005B
:1009AC004850000A03E1010E486E16D0482A485000
:1009BC001008D8A0BD6A7FC0E1FF80C0E2FF7DC0F7
:1009CC00E6FF00017F4B802B7FC0E1FF80C0E2FF80
:0A09DC007CC0E6FF7F4B802B120069
:1009E600020E0201536F290E216F630E226F060E4F
:1009F600236F000E246F640E256FC40E266F060E3D
:100A0600276F000E286F680E296F2B0E2A6F070EB0
:100A16002B6F000E2C6F8B0E2D6F980E2E6F070E00
:100A26002F6F000E306F2C0E316F0C0E326F080ECA
:100A3600336F000E346FAD0E356F860E366F080EAF
:100A4600376F000E386F770E396F080E3A6F090E42
:100A56003B6F000E3C6FF90E3D6F910E3E6F090E17
:100A66003F6F000E406FA80E416F230E426F0A0EB5
:100A7600436F000E446F000E456FBE0E466F0A0EA2
:100A8600476F000E486F860E496F610E4A6F0B0E58
:100A96004B6F000E4C6FC50E4D6F0E0E4E6F0C0E4B
:100AA6004F6F000E506F070E516F800EFF0A006EDB
:100AB600800E5119005C6CE2526B800E5219006E6A
:100AC600800E0C0A005C62E251C200F00C0E046E4D
:100AD600CEDE52510024036E000E52BFFF0E0120DF
:100AE600046E03C000F004C001F000360090013629
:100AF600003600900136A10E0024546F000E01202E
:100B0600556F5151010F006E016A000E51BFFF0E65
:100B160001220C0E046E000E056EB5DE5251002445
:100B2600036E000E52BFFF0E0120046E03C000F0DC
:100B360004C001F000360090013600360090013600
:100B4600A10E0024E96E000E0120EA6EEECF00F041
:100B5600EECF01F0EECF02F0EECF03F053C204F079
:100B6600000E53BFFF0E056E066E076E01EC01F018
:100B760054C2E1FF55C2E2FF00C0E6FF01C0E6FF36
:100B860002C0E6FF03C0E6FF522B97D751078DD769
:020B960012004B
:100B9800000E0201541902E10A0E531919E10A0E56
:100BA800006E000E016E000E026E000E036E51C242
:100BB80004F052C205F0000E066E076E8BDE00C010
:100BC80004F001C005F002C006F003C007F00FD022
:100BD80051C200F052C201F0000E026E036E00C056
:100BE80004F001C005F002C006F003C007F004C01D
:100BF80055F205C056F206C057F207C058F25E6BB0
:100C08005F6B596B6C0E595D2DE259C200F0000EF6
:100C1800016E003600900136003600900136A10EB4
:100C28000024D96E000E0120DA6EDECF01F0DECF8F
:100C380002F0DECF03F0DECF04F05851045C08E187
:100C48005751035C05E15651025C02E15551015CC4
:100C580006E259C25EF25951010F5F6F01D002D00E
:100C6800592BD0D75EC200F0000E016E00360090FE
:100C78000136003600900136A10E0024D96E000E10
:100C88000120DA6E55C205F056C206F057C207F0C9
:100C980058C208F0DE50055EDE50065ADE50075A8C
:100CA800DE50085A5FC200F0000E016E0036009058
:100CB8000136003600900136A10E0024E96E000EC0
:100CC8000120EA6EEECF01F0EECF02F0EECF03F096
:100CD800EECF04F05551015E5651025A5751035A4E
:100CE8005851045A0850045C08E10750035C05E1B8
:100CF8000650025C02E10550015C03E25FC25AF251
:100D080002D05EC25AF20FDE020E646F010E656FEA
:100D180055C266F256C267F257C268F258C269F203
:100D280091EC02F000DE020E0201646F090E656F9D
:100D38005AC200F0000E016E0036009001360036EF
:100D480000900136A10E0024E96E000E0120EA6E23
:100D5800EECF66F2EECF67F2EECF68F2EECF69F231
:100D680091EC02F05AC200F0000E016E00360090BD
:100D78000136003600900136A10E0024D96E000E0F
:100D88000120DA6EDECF60F2DECF61F2DECF62F2F2
:100D9800DECF63F255C200F056C201F057C202F02E
:100DA80058C203F002016051005E6151015A62515C
:100DB800025A6351035A100E046E270E056E000E78
:100DC800066E000E076E86DD60C204F061C205F093
:100DD80062C206F063C207F001EC01F000C05CF2E9
:100DE80001C05DF25AC264F28BEC02F000C05BF203
:100DF8005AC264F233DD5BC264F200C065F25CC2C1
:0A0E080066F25DC267F297DC12008B
:100E12000201516B526B536B546B056A200E055CD9
:100E220029E2810EE96E000EEA6E0550E926D8B07D
:100E3200EA2AEECF01F001C003F0026A0550010F69
:100E4200006E016A000E0122810E0024D96E000E8E
:100E52000120DA6EDE500224006E000E0320016EC5
:100E62000050512701505223000E53235423020EE7
:100E72000526D4D7040E046E51C200F052C201F00E
:100E820053C202F054C203F0045007E003320232AC
:0C0E920001320032039EFF0FF8D712005F
:100E9E00810E00017F6F000E806F486A050EBD6ED9
:020EAE00120030
:100EB00051C253F252C254F2000E0201556F566FE6
:100EC00053C200F054C201F055C202F056C203F002
:100ED00053C004F0000E056E066E076EFFDC525024
:100EE0000024046E000E0120056E000E0220066E26
:100EF000000E0320076E4EC000F04FC001F050C03E
:0C0F000002F051C003F001EC01F01200FF
:100F0C00939693949398939A939C939E81968194A1
:100F1C00819E819C819A819821EC00F021EC00F05B
:100F2C0021EC00F0818A818881862CEC00F081967E
:100F3C0021EC00F081862CEC00F0819621EC00F085
:100F4C0081862CEC00F0819621EC00F08198818652
:100F5C002CEC00F0819621EC00F081862CEC00F05A
:100F6C008196819A818E81862CEC00F0819621EC01
:100F7C0000F0819E818881862CEC00F0819681980E
:100F8C0081862CEC00F0819621EC00F081862CEC13
:100F9C0000F08196818881862CEC00F0819621EC02
:100FAC0000F0819881862CEC00F08196818E818CEA
:100FBC00818A818881862CEC00F0819621EC00F0EE
:060FCC0000017E8112000D
:100FD2005AEC08F0BDDC06DD0A0E516FCADC95DF63
:100FE200010E0201786F37EC00F00C0E0201786FEF
:100FF20037EC00F0010E0201726F010E736F180ED2
:10100200746F000E756F80EC00F0020E0201726FB9
:10101200010E736F290E746F000E756F80EC00F075
:101022003DDF4850100810E2F3DE00C051F201C06B
:1010320052F23DDF00C051F201C052F20A0E536F6C
:0C104200000E546FA8DD2ADFECD7FFD7AA
:1010B40010EE18F0660E006E010E016E4E0EF66E06
:0E10C400100EF76E000EF86EA1EC04F0120094
:10104E004E6F74653A202020202020202020202062
:01105E000091
:10105F00202020202020202F202020202020202072
:01106F000080
:041070002D422000ED
:051074002D46202000C4
:051079002D45202000C0
:01107E000071
:05107F002D41232000BB
:041084000000000068
:011088000067
:011089000066
:05108A002D47232000AA
:05108F002D41202000AE
:051094002D46232000A1
:051099002D472020009E
:05109E002D432320009A
:0510A3002D4320200098
:0510A8002D442320008F
:0510AD002D442020008D
:0210B20000003C
:020000040030CA
:0D000100220F0EFFFF81FF0FC00FE00F4028
:00000001FF
