:04000000E4EF04F035
:1000080000C015F09EA40DD0BF501D6EBE501C6ED2
:10001800CD90CF6ACE6ACD8ACD989E90CD8048DAB1
:080028009E9415C000F01100C8
:10003000240E0C6EB50E0D6E0D2EFED70C2EFCD7B9
:06004000000000001200A8
:0A004600530E0D6E0D2EFED71200B2
:0C00500000000000000000000000120092
:10005C0000016DBF02D0819E01D0818E6DBD02D09A
:10006C00819C01D0818C6DBB02D0819A01D0818A98
:10007C006DB902D0819801D0818837B002D08184CB
:10008C0001D081948186DEDF81966DB702D0819E8E
:10009C0001D0818E6DB502D0819C01D0818C6DB365
:1000AC0002D0819A01D0818A6DB102D0819801D0A1
:1000BC00818837B002D0818401D081948186C2DFDF
:0E00CC00819637A002D0AEDF01D0B7DF120060
:1000DA00220E0C6E086A096A0A6A0B6A0C06D8B400
:1000EA001FD0D8900B320A32093208320332023258
:1000FA0001320032D8A0F2D70C06D8B409D0045085
:10010A0008260550092206500A2207500B22EAD770
:10011A00045008260550092206500A2207500B22CD
:02012A001200C1
:10012C0010D0800E00016A6F1AD0C00E6A6F17D003
:10013C00940E6A6F14D0D40E6A6F11D0800E6A6F51
:10014C000ED000016A51010AECE06A51020AEDE09E
:10015C006A51030AEDE06A51040AEDE0EFD76B0532
:10016C00006E6A51002600C06AF0378000C06DF046
:0E017C006FDF37906CC06DF06BDF37801200C4
:10018A00086A096A100E0C6E0134083609360450E2
:10019A00085E0550D8A0053C095ED8B007D00450C7
:1001AA0008260550D8B0053C0926D89000360136F5
:0601BA000C2EEAD7120032
:0C01C000379060C06DF04ADF37801200FD
:1001CC000B6A0A6A096A086A0E6A03340836045014
:1001DC00085E0550D8A0053C095E0650D8A0063C28
:1001EC000A5E0750D8A0073C0B5EE86AD8A0010E47
:1001FC000E5E0336070E0C6E0334083609360A36CB
:10020C000B360E36045003A012D0085E0550D8A051
:10021C00053C095E0650D8A0063C0A5E0750D8A0E3
:10022C00073C0B5EE86AD8A0010E0E5E11D00826C2
:10023C000550D8B0053C09260650D8B0063C0A2615
:10024C000750D8B0073C0B26E86AD8B0010E0E2632
:10025C0003360C2ED1D70234083609360A360B3643
:10026C000E36045003A012D0085E0550D8A0053CF1
:10027C00095E0650D8A0063C0A5E0750D8A0073C81
:10028C000B5EE86AD8A0010E0E5E11D00826055050
:10029C00D8B0053C09260650D8B0063C0A260750B3
:1002AC00D8B0073C0B26E86AD8B0010E0E260236F1
:1002BC00070E0C6E0234083609360A360B360E362B
:1002CC00045002A012D0085E0550D8A0053C095E6F
:1002DC000650D8A0063C0A5E0750D8A0073C0B5E1F
:1002EC00E86AD8A0010E0E5E11D008260550D8B0D1
:1002FC00053C09260650D8B0063C0A260750D8B053
:10030C00073C0B26E86AD8B0010E0E2602360C2EDE
:10031C00D1D70134083609360A360B360E3604505E
:10032C0002A012D0085E0550D8A0053C095E06500C
:10033C00D8A0063C0A5E0750D8A0073C0B5EE86AC2
:10034C00D8A0010E0E5E11D008260550D8B0053C81
:10035C0009260650D8B0063C0A260750D8B0073CF0
:10036C000B26E86AD8B0010E0E260136070E0C6E6D
:10037C000134083609360A360B360E36045001A005
:10038C0012D0085E0550D8A0053C095E0650D8A0D6
:10039C00063C0A5E0750D8A0073C0B5EE86AD8A062
:1003AC00010E0E5E11D008260550D8B0053C09266A
:1003BC000650D8B0063C0A260750D8B0073C0B268E
:1003CC00E86AD8B0010E0E2601360C2ED1D70034B7
:1003DC00083609360A360B360E36045001A012D0F8
:1003EC00085E0550D8A0053C095E0650D8A0063C16
:1003FC000A5E0750D8A0073C0B5EE86AD8A0010E35
:10040C000E5E11D008260550D8B0053C09260650C2
:10041C00D8B0063C0A260750D8B0073C0B26E86A31
:10042C00D8B0010E0E260036070E0C6E00340836BE
:10043C0009360A360B360E36045000A012D0085E70
:10044C000550D8A0053C095E0650D8A0063C0A5EB3
:10045C000750D8A0073C0B5EE86AD8A0010E0E5ED0
:10046C0011D008260550D8B0053C09260650D8B046
:10047C00063C0A260750D8B0073C0B26E86AD8B0D1
:10048C00010E0E2600360C2ED1D700B00ED0045023
:10049C0008260550D8B0053C09260650D8B0063CB5
:0C04AC000A260750D8B0073C0B261200AF
:1004B8003650000A03E1010E366E15D0362A365042
:1004C8001008D8A0BD6A38C0E1FF39C0E2FF1DC0DE
:1004D800E6FF384A392A38C0E1FF39C0E2FF1CC0BC
:0804E800E6FF384A392A120030
:1004F0003A0E386E000E396E366A050EBD6E120069
:100500000900F5CFE6FF0006FBE10106F9E1120064
:10051000939693949398939A939C939E81968194A7
:10052000819E819C819A819883DD82DD81DD818A33
:10053000818881868DDD81967BDD818689DD81964E
:1005400077DD818685DD819673DD8198818680DD0A
:1005500081966EDD81867CDD8196819A818E818691
:1005600077DD819665DD819E8188818671DD81964A
:10057000819881866DDD81965BDD818669DD81965E
:100580008188818665DD819653DD8198818660DD75
:100590008196818E818C818A8188818659DD8196C0
:0605A00047DD3780120068
:1005A600070EC16E806A926A040E826E040E946E05
:1005B600CD90CD96CD92CD9ACD98F28C9D84F28E2B
:0205C600120021
:1005C80010D0800E0001616F1AD0C00E616F17D075
:1005D800940E616F14D0D40E616F11D0800E616FCC
:1005E8000ED000016151010AECE06151020AEDE010
:1005F8006151030AEDE06151040AEDE0EFD76205AD
:10060800006E6151002600C061F000C06DF022DD6F
:1006180037905E6A5E506325E96E000E6421EA6ECB
:10062800EE520BE05E506325E96E000E6421EA6E1F
:0E063800EECF60F0C1DD5E2AEDD737801200F4
:10064600000E006E2D0E016E310E026E010E036E4F
:100656005EC004F0000E056E066E076E3BDD00C040
:1006660017F001C018F002C019F003C01AF0100EFE
:080676001B6E4F0E166E120000
:10067E000A0E046E000E056E63C000F064C001F039
:10068E007DDD08C000F009C001F000C065F00A0E63
:10069E00046E000E056E63C000F064C001F06EDDE6
:1006AE000A0E046E000E056E69DD08C000F009C06A
:1006BE0001F000C066F0640E046E000E056E63C09D
:1006CE0000F064C001F05ADD0A0E046E000E056ED5
:1006DE0055DD08C000F009C001F000C067F0E80E5B
:1006EE00046E030E056E63C000F064C001F046DDBB
:1006FE000A0E046E000E056E41DD08C000F009C042
:10070E0001F000C068F0100E046E270E056E63C077
:10071E0000F064C001F032DD0A0E046E000E056EAC
:10072E002DDD08C000F009C001F000C069F061C005
:10073E006AF0050E000162256B6F6551300F6C6F0C
:10074E00EEDC61C06AF0040E62256B6F2E0E6C6FCC
:10075E00E6DC61C06AF0030E62256B6F6651300FE6
:10076E006C6FDDDC61C06AF0020E62256B6F675143
:10077E00300F6C6FD4DC61C06AF06251010F6B6F89
:10078E006851300F6C6FCBDC6951000A08E161C013
:10079E006AF062C06BF0200E6C6FC1DC08D061C0D5
:1007AE006AF062C06BF06951300F6C6FB8DC1200EA
:1007BE000001616B626B636B646B056A200E055CF6
:1007CE0029E23A0EE96E000EEA6E0550E926D8B01F
:1007DE00EA2AEECF01F001C003F0026A0550010FC4
:1007EE00006E016A000E01223A0E0024D96E000E30
:1007FE000120DA6EDE500224006E000E0320016E20
:10080E000050612701506223000E63236423020E01
:10081E000526D4D7040E046E61C000F062C001F04C
:10082E0063C002F064C003F0045007E003320232EA
:0C083E0001320032039EFF0FF8D71200B9
:10084A005EC061F05FC062F0000E0001636F646F0A
:10085A0061C000F062C001F063C002F064C003F03E
:10086A001BC004F0000E056E066E076E31DC1650D2
:10087A000024046E000E0120056E000E0220066E92
:10088A00000E0320076E17C000F018C001F019C04F
:0A089A0002F01AC003F095DC120012
:1008A4000A0E046E000E056E63C000F064C001F011
:1008B4006ADC08C000F009C001F000C065F00A0E4F
:1008C400046E000E056E63C000F064C001F05BDCD2
:1008D4000A0E046E000E056E56DC08C000F009C056
:1008E40001F000C066F0640E046E000E056E63C075
:1008F40000F064C001F047DC0A0E046E000E056EC1
:1009040042DC08C000F009C001F000C067F0E80E46
:10091400046E030E056E63C000F064C001F033DCA6
:100924000A0E046E000E056E2EDC08C000F009C02D
:1009340001F000C068F0100E046E270E056E63C04F
:1009440000F064C001F01FDC0A0E046E000E056E98
:100954001ADC08C000F009C001F000C069F061C0F1
:100964006AF0040E000162256B6F6551300F6C6FE5
:1009740096EC00F061C06AF0030E62256B6F66515D
:10098400300F6C6F96EC00F061C06AF0020E6225C5
:100994006B6F6751300F6C6F96EC00F061C06AF0BA
:1009A4006251010F6B6F6851300F6C6F96EC00F061
:1009B40061C06AF062C06BF06951300F6C6F96ECE5
:0409C40000F012002D
:1009C8003EEC05F0ECDD640E5E6E39DE9DDD010E59
:1009D80000016D6F2EEC00F00C0E6D6F2EEC00F028
:1009E800010E616F010E626F1E0E636F000E646F61
:1009F800E7DD020E616F010E626F2A0E636F000E53
:100A0800646FDEDD71DD3650100821E2D4DE00C0EF
:100A18005CF001C05DF000C05EF001C05FF011DF66
:100A280000C05AF001C05BF0010E616F0C0E626FDE
:100A38005CC063F05DC064F031DF020E616F0B0EC5
:100A4800626F5AC063F05BC064F015DE4DDDDBD722
:020A5800FFD7C6
:100A7C0010EE16F0210E006E010E016E5A0EF66E7F
:0E0A8C000A0EF76E000EF86E80EC02F01200FB
:010A5A00009B
:040A5B000000000097
:010A5F000096
:020A6000000094
:0C0A620054696D65722E2E2E2E3A200075
:0C0A6E004672657175656E63793A200070
:010A7A00007B
:020000040030CA
:0D000100220F0EFFFF81FF0FC00FE00F4028
:00000001FF
