:04000000ECEF04F02D
:1000080000C015F09EA40DD0BF50246EBE50236EC4
:10001800CD90CF6ACE6ACD9ACD889E90CD8027DBD1
:080028009E9415C000F01100C8
:0A003000530E0D6E0D2EFED71200C8
:10003A00240E0C6EB50E0D6E0D2EFED70C2EFCD7AF
:06004A000000000012009E
:0C00500000000000000000000000120092
:10005C000450085E0550D8A0053C095E0650D8A097
:10006C00063C0A5E0750D8A0073C0B5E0336070E11
:10007C000C6E0334083609360A360B36045003A0CE
:10008C000ED0085E0550D8A0053C095E0650D8A0DD
:10009C00063C0A5E0750D8A0073C0B5E0DD0082624
:1000AC000550D8B0053C09260650D8B0063C0A26A7
:1000BC000750D8B0073C0B2603360C2EDAD7023487
:1000CC00083609360A360B36045003A00ED0085EEB
:1000DC000550D8A0053C095E0650D8A0063C0A5E27
:1000EC000750D8A0073C0B5E0DD008260550D8B0A1
:1000FC00053C09260650D8B0063C0A260750D8B055
:10010C00073C0B260236070E0C6E023408360936F5
:10011C000A360B36045002A00ED0085E0550D8A04B
:10012C00053C095E0650D8A0063C0A5E0750D8A0D4
:10013C00073C0B5E0DD008260550D8B0053C0926AF
:10014C000650D8B0063C0A260750D8B0073C0B2600
:10015C0002360C2EDAD70134083609360A360B363D
:10016C00045002A00ED0085E0550D8A0053C095ED4
:10017C000650D8A0063C0A5E0750D8A0073C0B5E80
:10018C000DD008260550D8B0053C09260650D8B02D
:10019C00063C0A260750D8B0073C0B260136070E42
:1001AC000C6E0134083609360A360B36045001A0A1
:1001BC000ED0085E0550D8A0053C095E0650D8A0AC
:1001CC00063C0A5E0750D8A0073C0B5E0DD00826F3
:1001DC000550D8B0053C09260650D8B0063C0A2676
:1001EC000750D8B0073C0B2601360C2EDAD700345A
:1001FC00083609360A360B36045001A00ED0085EBC
:10020C000550D8A0053C095E0650D8A0063C0A5EF5
:10021C000750D8A0073C0B5E0DD008260550D8B06F
:10022C00053C09260650D8B0063C0A260750D8B023
:10023C00073C0B260036070E0C6E003408360936C8
:10024C000A360B36045000A00ED0085E0550D8A01C
:10025C00053C095E0650D8A0063C0A5E0750D8A0A3
:10026C00073C0B5E0DD008260550D8B0053C09267E
:10027C000650D8B0063C0A260750D8B0073C0B26CF
:10028C0000360C2EDAD700B00ED0045008260550DC
:10029C00D8B0053C09260650D8B0063C0A260750B3
:0802AC00D8B0073C0B2612003C
:1002B400000164BF02D0819E01D0818E64BD02D052
:1002C400819C01D0818C64BB02D0819A01D0818A47
:1002D40064B902D0819801D0818853B002D081845E
:1002E40001D081948186B2DE819664B702D0819E6A
:1002F40001D0818E64B502D0819C01D0818C64B31D
:1003040002D0819A01D0818A64B102D0819801D04F
:10031400818853B002D0818401D08194818696DE95
:0E032400819653A002D087DE01D080DE120049
:100332000B1E0A1E091E081E082AD8B4092AD8B4A0
:080342000A2AD8B40B2A1200AC
:10034A00086A096A100E0C6E013408360936045020
:10035A00085E0550D8A0053C095ED8B007D0045005
:10036A0008260550D8B0053C0926D8900036013633
:06037A000C2EEAD7120070
:1003800010D0800E0001616F1AD0C00E616F17D0BF
:10039000940E616F14D0D40E616F11D0800E616F16
:1003A0000ED000016151010AECE06151020AEDE05A
:1003B0006151030AEDE06151040AEDE0EFD76205F7
:1003C000006E6151002600C061F0538000C064F0EF
:0E03D00071DF539063C064F06DDF5380120044
:0C03DE00539061C064F067DF5380120090
:1003EA000450000A12E10550000A0FE10650000A03
:1003FA000CE10750000A09E1FF0E006EFF0E016EC4
:10040A00FF0E026E7F0E036E97D00C6A07BE0C2A8F
:10041A000D6A0B6A0A6A096A086A03500210011017
:10042A000010D8B484D0035007180E6E0EBE0D1EED
:10043A0007AE0BD0041E051E061E071E042AD8B4DA
:10044A00052AD8B4062AD8B4072A03AE0BD0001E50
:10045A00011E021E031E002AD8B4012AD8B4022A99
:10046A00D8B4032A035007100E6E0EBE1CD0F1DD5D
:10047A000CBE36D00DAE5BD0001E011E021E031E3E
:10048A00002AD8B4012AD8B4022AD8B4032A081EEA
:10049A00091E0A1E0B1E082AD8B4092AD8B40A2A29
:1004AA00D8B40B2A44D007AE15D003BE0DD00350E2
:1004BA000B6E02500A6E0150096E0050086E036AF4
:1004CA00026A016A006AD6D7036A026A016A006A86
:1004DA00002A000C031E021E011E001E0C8EC7D726
:1004EA00082AD8B4092AD8B40A2AD8B40B2A04503C
:1004FA00085CD8A4BFD70550095CD8A4BBD706505E
:10050A000A5CD8A4B7D707500B5CD8A4B3D70B6A38
:10051A000A6A096A086A002AD8B4012AD8B4022ADF
:10052A00D8B4032A03AEA6D70E6A0E88FF0C0E6A49
:0A053A000CA001D0F9DE000F120042
:100544000FD0800E586E19D0C00E586E16D0940E6F
:10055400586E13D0D40E586E10D0800E586E0DD035
:100564005850010AEEE05850020AEEE05850030ACF
:10057400EEE05850040AEEE0F0D75904006E5850EB
:10058400002600C058F000C064F092DE53905C6A0C
:100594005C505A24E96E000E5B20EA6EEE520BE0CA
:1005A4005C505A24E96E000E5B20EA6EEECF61F0D7
:0A05B40014DF5C2AEDD7538012001B
:1005BE00939693949398939A939C939E81968194F9
:1005CE00819E819C819A819831DD30DD2FDD818A7B
:1005DE008188818636DD819629DD818632DD8196A0
:1005EE0025DD81862EDD819621DD8198818629DDAE
:1005FE0081961CDD818625DD8196819A818E81868C
:10060E0020DD819613DD819E818881861ADD81969B
:10061E008198818616DD819609DD818612DD8196AF
:10062E00818881860EDD819601DD8198818609DDC6
:10063E008196818E818C818A8188818602DD819668
:06064E00F5DC53801200F0
:10065400070EC16E806A926A040E826E040E946E56
:10066400CD90CD96CD92CD9ACD98F28C9D84F28E7C
:02067400120072
:100676001650000A03E1010E166E15D0162A165002
:100686001008D8A0BD6A31C0E1FF32C0E2FF24C025
:10069600E6FF314A322A31C0E1FF32C0E2FF23C011
:0806A600E6FF314A322A12007E
:1006AE000900F5CFE6FF0006FBE10106F9E11200B5
:1006BE00586A596A5A6A5B6A056A200E055C29E215
:1006CE00330EE96E000EEA6E0550E926D8B0EA2A1E
:1006DE00EECF01F001C003F0026A0550010F006E6B
:1006EE00016A000E0122330E0024D96E000E012085
:1006FE00DA6EDE500224006E000E0320016E0050F2
:10070E00582601505922000E5A225B22020E05264F
:10071E00D4D7040E046E58C000F059C001F05AC070
:10072E0002F05BC003F0045007E0033202320132E4
:0A073E000032039EFF0FF8D71200EF
:10074800330E316E000E326E166A050EBD6E120043
:10075800120E5824046E000E5920056E000E066E07
:10076800076E800E006EF00E016EFA0E026E020E1B
:06077800036E37DE1200E3
:10077E000A0E046E000E056E5AC000F05BC001F04A
:10078E00DDDD08C000F009C001F000C05CF00A0E0B
:10079E00046E000E056E5AC000F05BC001F0CEDD97
:1007AE000A0E046E000E056EC9DD08C000F009C009
:1007BE0001F000C05DF0640E046E000E056E5AC0AE
:1007CE0000F05BC001F0BADD0A0E046E000E056E7D
:1007DE00B5DD08C000F009C001F000C05EF0E80E03
:1007EE00046E030E056E5AC000F05BC001F0A6DD6C
:1007FE000A0E046E000E056EA1DD08C000F009C0E1
:10080E0001F000C05FF0100E046E270E056E5AC088
:10081E0000F05BC001F092DD0A0E046E000E056E54
:10082E008DDD08C000F009C001F000C060F058C0B6
:10083E0061F0040E59240001626F5C50300F636F3B
:10084E0098DD58C061F0030E5924626F5D50300F71
:10085E00636F8FDD58C061F0020E5924626F5E50D7
:10086E00300F636F86DD58C061F05950010F626F13
:10087E005F50300F636F7DDD58C061F059C062F07C
:0A088E006051300F636F75DD12003A
:100898000A0E046E000E056E5AC000F05BC001F02F
:1008A80050DD08C000F009C001F000C05CF00A0E7D
:1008B800046E000E056E5AC000F05BC001F041DD09
:1008C8000A0E046E000E056E3CDD08C000F009C07B
:1008D80001F000C05DF0640E046E000E056E5AC093
:1008E80000F05BC001F02DDD0A0E046E000E056EEF
:1008F80028DD08C000F009C001F000C05EF0E80E75
:10090800046E030E056E5AC000F05BC001F019DDDD
:100918000A0E046E000E056E14DD08C000F009C052
:1009280001F000C05FF0100E046E270E056E5AC06D
:1009380000F05BC001F005DD0A0E046E000E056EC6
:1009480000DD08C000F009C001F000C060F058C028
:1009580061F0050E59240001626F5C50300F636F1F
:100968000BDD58C061F0040E5924626F2E0E636FC0
:1009780003DD58C061F0030E5924626F5D50300FDB
:10098800636FFADC58C061F0020E5924626F5E5042
:10099800300F636FF1DC58C061F05950010F626F7E
:1009A8005F50300F636FE8DC6051000A08E158C0FF
:1009B80061F059C062F0200E636FDEDC08D058C0C9
:1009C80061F059C062F06051300F636FD5DC1200DE
:1009D8003EEC05F03BDEEFDD010E0001646F66DCE6
:1009E8000C0E646F63DC010E586E010E596E170E03
:1009F8005A6E000E5B6EA2DD020E586E010E596E25
:100A0800250E5A6E000E5B6E99DD9ADE16501008A0
:100A180021E251DE00C056F001C057F000C058F086
:100A280001C059F095DE00C054F001C055F0010E28
:100A3800586E0C0E596E56C05AF057C05BF09BDECC
:100A4800020E586E0B0E596E54C05AF055C05BF02A
:080A58001FDF76DEDBD7FFD7BC
:100A7C0010EE16F01B0E006E010E016E600EF66E7F
:0E0A8C000A0EF76E000EF86E57EC03F0120023
:010A60000095
:0C0A610054696D65722E2E2E2E3A200076
:020A6D00000087
:0C0A6F004672657175656E63793A20006F
:020000040030CA
:0D000100220F0EFFFF81FF0FC00FE00F4028
:00000001FF
